{
  "contractName": "DigitalREC",
  "abi": [
    {
      "inputs": [],
      "stateMutability": "nonpayable",
      "type": "constructor"
    },
    {
      "anonymous": false,
      "inputs": [
        {
          "indexed": true,
          "internalType": "address",
          "name": "owner",
          "type": "address"
        },
        {
          "indexed": true,
          "internalType": "address",
          "name": "approved",
          "type": "address"
        },
        {
          "indexed": true,
          "internalType": "uint256",
          "name": "tokenId",
          "type": "uint256"
        }
      ],
      "name": "Approval",
      "type": "event"
    },
    {
      "anonymous": false,
      "inputs": [
        {
          "indexed": true,
          "internalType": "address",
          "name": "owner",
          "type": "address"
        },
        {
          "indexed": true,
          "internalType": "address",
          "name": "operator",
          "type": "address"
        },
        {
          "indexed": false,
          "internalType": "bool",
          "name": "approved",
          "type": "bool"
        }
      ],
      "name": "ApprovalForAll",
      "type": "event"
    },
    {
      "anonymous": false,
      "inputs": [
        {
          "indexed": true,
          "internalType": "address",
          "name": "previousOwner",
          "type": "address"
        }
      ],
      "name": "OwnershipRenounced",
      "type": "event"
    },
    {
      "anonymous": false,
      "inputs": [
        {
          "indexed": true,
          "internalType": "address",
          "name": "previousOwner",
          "type": "address"
        },
        {
          "indexed": true,
          "internalType": "address",
          "name": "newOwner",
          "type": "address"
        }
      ],
      "name": "OwnershipTransferred",
      "type": "event"
    },
    {
      "anonymous": false,
      "inputs": [
        {
          "indexed": true,
          "internalType": "address",
          "name": "from",
          "type": "address"
        },
        {
          "indexed": true,
          "internalType": "address",
          "name": "to",
          "type": "address"
        },
        {
          "indexed": true,
          "internalType": "uint256",
          "name": "tokenId",
          "type": "uint256"
        }
      ],
      "name": "Transfer",
      "type": "event"
    },
    {
      "inputs": [
        {
          "internalType": "uint256",
          "name": "",
          "type": "uint256"
        }
      ],
      "name": "RECToOwner",
      "outputs": [
        {
          "internalType": "address",
          "name": "",
          "type": "address"
        }
      ],
      "stateMutability": "view",
      "type": "function",
      "constant": true
    },
    {
      "inputs": [
        {
          "internalType": "uint256",
          "name": "",
          "type": "uint256"
        }
      ],
      "name": "RECs",
      "outputs": [
        {
          "internalType": "uint256",
          "name": "stateID",
          "type": "uint256"
        },
        {
          "internalType": "address",
          "name": "owner",
          "type": "address"
        },
        {
          "internalType": "uint256",
          "name": "price",
          "type": "uint256"
        }
      ],
      "stateMutability": "view",
      "type": "function",
      "constant": true
    },
    {
      "inputs": [
        {
          "internalType": "address",
          "name": "to",
          "type": "address"
        },
        {
          "internalType": "uint256",
          "name": "tokenId",
          "type": "uint256"
        }
      ],
      "name": "approve",
      "outputs": [],
      "stateMutability": "nonpayable",
      "type": "function"
    },
    {
      "inputs": [
        {
          "internalType": "address",
          "name": "owner",
          "type": "address"
        }
      ],
      "name": "balanceOf",
      "outputs": [
        {
          "internalType": "uint256",
          "name": "",
          "type": "uint256"
        }
      ],
      "stateMutability": "view",
      "type": "function",
      "constant": true
    },
    {
      "inputs": [],
      "name": "baseURI",
      "outputs": [
        {
          "internalType": "string",
          "name": "",
          "type": "string"
        }
      ],
      "stateMutability": "view",
      "type": "function",
      "constant": true
    },
    {
      "inputs": [
        {
          "internalType": "uint256",
          "name": "tokenId",
          "type": "uint256"
        }
      ],
      "name": "getApproved",
      "outputs": [
        {
          "internalType": "address",
          "name": "",
          "type": "address"
        }
      ],
      "stateMutability": "view",
      "type": "function",
      "constant": true
    },
    {
      "inputs": [
        {
          "internalType": "address",
          "name": "owner",
          "type": "address"
        },
        {
          "internalType": "address",
          "name": "operator",
          "type": "address"
        }
      ],
      "name": "isApprovedForAll",
      "outputs": [
        {
          "internalType": "bool",
          "name": "",
          "type": "bool"
        }
      ],
      "stateMutability": "view",
      "type": "function",
      "constant": true
    },
    {
      "inputs": [],
      "name": "name",
      "outputs": [
        {
          "internalType": "string",
          "name": "",
          "type": "string"
        }
      ],
      "stateMutability": "view",
      "type": "function",
      "constant": true
    },
    {
      "inputs": [],
      "name": "owner",
      "outputs": [
        {
          "internalType": "address",
          "name": "",
          "type": "address"
        }
      ],
      "stateMutability": "view",
      "type": "function",
      "constant": true
    },
    {
      "inputs": [
        {
          "internalType": "uint256",
          "name": "tokenId",
          "type": "uint256"
        }
      ],
      "name": "ownerOf",
      "outputs": [
        {
          "internalType": "address",
          "name": "",
          "type": "address"
        }
      ],
      "stateMutability": "view",
      "type": "function",
      "constant": true
    },
    {
      "inputs": [
        {
          "internalType": "address",
          "name": "",
          "type": "address"
        }
      ],
      "name": "ownerRECCount",
      "outputs": [
        {
          "internalType": "uint256",
          "name": "",
          "type": "uint256"
        }
      ],
      "stateMutability": "view",
      "type": "function",
      "constant": true
    },
    {
      "inputs": [],
      "name": "renounceOwnership",
      "outputs": [],
      "stateMutability": "nonpayable",
      "type": "function"
    },
    {
      "inputs": [
        {
          "internalType": "address",
          "name": "from",
          "type": "address"
        },
        {
          "internalType": "address",
          "name": "to",
          "type": "address"
        },
        {
          "internalType": "uint256",
          "name": "tokenId",
          "type": "uint256"
        }
      ],
      "name": "safeTransferFrom",
      "outputs": [],
      "stateMutability": "nonpayable",
      "type": "function"
    },
    {
      "inputs": [
        {
          "internalType": "address",
          "name": "from",
          "type": "address"
        },
        {
          "internalType": "address",
          "name": "to",
          "type": "address"
        },
        {
          "internalType": "uint256",
          "name": "tokenId",
          "type": "uint256"
        },
        {
          "internalType": "bytes",
          "name": "_data",
          "type": "bytes"
        }
      ],
      "name": "safeTransferFrom",
      "outputs": [],
      "stateMutability": "nonpayable",
      "type": "function"
    },
    {
      "inputs": [
        {
          "internalType": "address",
          "name": "operator",
          "type": "address"
        },
        {
          "internalType": "bool",
          "name": "approved",
          "type": "bool"
        }
      ],
      "name": "setApprovalForAll",
      "outputs": [],
      "stateMutability": "nonpayable",
      "type": "function"
    },
    {
      "inputs": [
        {
          "internalType": "bytes4",
          "name": "interfaceId",
          "type": "bytes4"
        }
      ],
      "name": "supportsInterface",
      "outputs": [
        {
          "internalType": "bool",
          "name": "",
          "type": "bool"
        }
      ],
      "stateMutability": "view",
      "type": "function",
      "constant": true
    },
    {
      "inputs": [],
      "name": "symbol",
      "outputs": [
        {
          "internalType": "string",
          "name": "",
          "type": "string"
        }
      ],
      "stateMutability": "view",
      "type": "function",
      "constant": true
    },
    {
      "inputs": [
        {
          "internalType": "uint256",
          "name": "index",
          "type": "uint256"
        }
      ],
      "name": "tokenByIndex",
      "outputs": [
        {
          "internalType": "uint256",
          "name": "",
          "type": "uint256"
        }
      ],
      "stateMutability": "view",
      "type": "function",
      "constant": true
    },
    {
      "inputs": [
        {
          "internalType": "address",
          "name": "owner",
          "type": "address"
        },
        {
          "internalType": "uint256",
          "name": "index",
          "type": "uint256"
        }
      ],
      "name": "tokenOfOwnerByIndex",
      "outputs": [
        {
          "internalType": "uint256",
          "name": "",
          "type": "uint256"
        }
      ],
      "stateMutability": "view",
      "type": "function",
      "constant": true
    },
    {
      "inputs": [
        {
          "internalType": "uint256",
          "name": "tokenId",
          "type": "uint256"
        }
      ],
      "name": "tokenURI",
      "outputs": [
        {
          "internalType": "string",
          "name": "",
          "type": "string"
        }
      ],
      "stateMutability": "view",
      "type": "function",
      "constant": true
    },
    {
      "inputs": [],
      "name": "totalSupply",
      "outputs": [
        {
          "internalType": "uint256",
          "name": "",
          "type": "uint256"
        }
      ],
      "stateMutability": "view",
      "type": "function",
      "constant": true
    },
    {
      "inputs": [
        {
          "internalType": "address",
          "name": "from",
          "type": "address"
        },
        {
          "internalType": "address",
          "name": "to",
          "type": "address"
        },
        {
          "internalType": "uint256",
          "name": "tokenId",
          "type": "uint256"
        }
      ],
      "name": "transferFrom",
      "outputs": [],
      "stateMutability": "nonpayable",
      "type": "function"
    },
    {
      "inputs": [
        {
          "internalType": "uint256",
          "name": "stateID",
          "type": "uint256"
        },
        {
          "internalType": "uint256",
          "name": "price",
          "type": "uint256"
        }
      ],
      "name": "mintToken",
      "outputs": [],
      "stateMutability": "nonpayable",
      "type": "function"
    },
    {
      "inputs": [
        {
          "internalType": "address",
          "name": "_owner",
          "type": "address"
        }
      ],
      "name": "RECsOwned",
      "outputs": [
        {
          "internalType": "uint256[]",
          "name": "_ownedRECIds",
          "type": "uint256[]"
        }
      ],
      "stateMutability": "view",
      "type": "function",
      "constant": true
    },
    {
      "inputs": [
        {
          "internalType": "uint256",
          "name": "RECid",
          "type": "uint256"
        }
      ],
      "name": "buyREC",
      "outputs": [],
      "stateMutability": "payable",
      "type": "function",
      "payable": true
    },
    {
      "inputs": [
        {
          "internalType": "address",
          "name": "_from",
          "type": "address"
        },
        {
          "internalType": "address",
          "name": "_to",
          "type": "address"
        },
        {
          "internalType": "uint256",
          "name": "_RECId",
          "type": "uint256"
        }
      ],
      "name": "transferOwnership",
      "outputs": [],
      "stateMutability": "nonpayable",
      "type": "function"
    },
    {
      "inputs": [
        {
          "internalType": "address",
          "name": "_newOwner",
          "type": "address"
        }
      ],
      "name": "transferOwnership",
      "outputs": [],
      "stateMutability": "nonpayable",
      "type": "function"
    }
  ],
  "bytecode": "0x60806040526000600b553480156200001657600080fd5b50604080518082018252600a81527f4469676974616c524543000000000000000000000000000000000000000000006020808301919091528251808401909352600383527f52454300000000000000000000000000000000000000000000000000000000009083015290620000b47f01ffc9a7000000000000000000000000000000000000000000000000000000006001600160e01b036200019616565b8151620000c990600690602085019062000265565b508051620000df90600790602084019062000265565b50620001147f80ac58cd000000000000000000000000000000000000000000000000000000006001600160e01b036200019616565b620001487f5b5e139f000000000000000000000000000000000000000000000000000000006001600160e01b036200019616565b6200017c7f780e9d63000000000000000000000000000000000000000000000000000000006001600160e01b036200019616565b5050600a80546001600160a01b031916331790556200030a565b7fffffffff0000000000000000000000000000000000000000000000000000000080821614156200022857604080517f08c379a000000000000000000000000000000000000000000000000000000000815260206004820152601c60248201527f4552433136353a20696e76616c696420696e7465726661636520696400000000604482015290519081900360640190fd5b7fffffffff00000000000000000000000000000000000000000000000000000000166000908152602081905260409020805460ff19166001179055565b828054600181600116156101000203166002900490600052602060002090601f016020900481019282601f10620002a857805160ff1916838001178555620002d8565b82800160010185558215620002d8579182015b82811115620002d8578251825591602001919060010190620002bb565b50620002e6929150620002ea565b5090565b6200030791905b80821115620002e65760008155600101620002f1565b90565b61229e806200031a6000396000f3fe60806040526004361061019c5760003560e01c80636c0360eb116100ec578063af7a32b61161008a578063cb3cd0b411610064578063cb3cd0b41461075d578063e985e9c514610790578063f2fde38b146107cb578063fc4d1ce6146107fe5761019c565b8063af7a32b6146105dd578063b88d4fde14610660578063c87b56dd146107335761019c565b80638d508b73116100c65780638d508b731461054e5780638da5cb5b1461057857806395d89b411461058d578063a22cb465146105a25761019c565b80636c0360eb146104f157806370a0823114610506578063715018a6146105395761019c565b806318160ddd116101595780632f745c59116101335780632f745c591461042157806342842e0e1461045a5780634f6ccce71461049d5780636352211e146104c75761019c565b806318160ddd1461038757806320cbf5f9146103ae57806323b872dd146103de5761019c565b806301ffc9a7146101a157806306fdde03146101e9578063081812fc14610273578063095ea7b3146102b95780630efa40ce146102f4578063171c00fd14610344575b600080fd5b3480156101ad57600080fd5b506101d5600480360360208110156101c457600080fd5b50356001600160e01b03191661081b565b604080519115158252519081900360200190f35b3480156101f557600080fd5b506101fe61083e565b6040805160208082528351818301528351919283929083019185019080838360005b83811015610238578181015183820152602001610220565b50505050905090810190601f1680156102655780820380516001836020036101000a031916815260200191505b509250505060405180910390f35b34801561027f57600080fd5b5061029d6004803603602081101561029657600080fd5b50356108d4565b604080516001600160a01b039092168252519081900360200190f35b3480156102c557600080fd5b506102f2600480360360408110156102dc57600080fd5b506001600160a01b038135169060200135610936565b005b34801561030057600080fd5b5061031e6004803603602081101561031757600080fd5b5035610a11565b604080519384526001600160a01b03909216602084015282820152519081900360600190f35b34801561035057600080fd5b506102f26004803603606081101561036757600080fd5b506001600160a01b03813581169160208101359091169060400135610a4d565b34801561039357600080fd5b5061039c610b49565b60408051918252519081900360200190f35b3480156103ba57600080fd5b506102f2600480360360408110156103d157600080fd5b5080359060200135610b5a565b3480156103ea57600080fd5b506102f26004803603606081101561040157600080fd5b506001600160a01b03813581169160208101359091169060400135610c02565b34801561042d57600080fd5b5061039c6004803603604081101561044457600080fd5b506001600160a01b038135169060200135610c59565b34801561046657600080fd5b506102f26004803603606081101561047d57600080fd5b506001600160a01b03813581169160208101359091169060400135610c8a565b3480156104a957600080fd5b5061039c600480360360208110156104c057600080fd5b5035610ca5565b3480156104d357600080fd5b5061029d600480360360208110156104ea57600080fd5b5035610cc1565b3480156104fd57600080fd5b506101fe610cef565b34801561051257600080fd5b5061039c6004803603602081101561052957600080fd5b50356001600160a01b0316610d50565b34801561054557600080fd5b506102f2610db8565b34801561055a57600080fd5b5061029d6004803603602081101561057157600080fd5b5035610e19565b34801561058457600080fd5b5061029d610e34565b34801561059957600080fd5b506101fe610e43565b3480156105ae57600080fd5b506102f2600480360360408110156105c557600080fd5b506001600160a01b0381351690602001351515610ea4565b3480156105e957600080fd5b506106106004803603602081101561060057600080fd5b50356001600160a01b0316610fa9565b60408051602080825283518183015283519192839290830191858101910280838360005b8381101561064c578181015183820152602001610634565b505050509050019250505060405180910390f35b34801561066c57600080fd5b506102f26004803603608081101561068357600080fd5b6001600160a01b038235811692602081013590911691604082013591908101906080810160608201356401000000008111156106be57600080fd5b8201836020820111156106d057600080fd5b803590602001918460018302840111640100000000831117156106f257600080fd5b91908080601f0160208091040260200160405190810160405280939291908181526020018383808284376000920191909152509295506110b6945050505050565b34801561073f57600080fd5b506101fe6004803603602081101561075657600080fd5b5035611114565b34801561076957600080fd5b5061039c6004803603602081101561078057600080fd5b50356001600160a01b03166113bb565b34801561079c57600080fd5b506101d5600480360360408110156107b357600080fd5b506001600160a01b03813581169160200135166113cd565b3480156107d757600080fd5b506102f2600480360360208110156107ee57600080fd5b50356001600160a01b03166113fb565b6102f26004803603602081101561081457600080fd5b503561141e565b6001600160e01b0319811660009081526020819052604090205460ff165b919050565b60068054604080516020601f60026000196101006001881615020190951694909404938401819004810282018101909252828152606093909290918301828280156108ca5780601f1061089f576101008083540402835291602001916108ca565b820191906000526020600020905b8154815290600101906020018083116108ad57829003601f168201915b5050505050905090565b60006108df82611509565b61091a5760405162461bcd60e51b815260040180806020018281038252602c815260200180612193602c913960400191505060405180910390fd5b506000908152600460205260409020546001600160a01b031690565b600061094182610cc1565b9050806001600160a01b0316836001600160a01b031614156109945760405162461bcd60e51b81526004018080602001828103825260218152602001806122176021913960400191505060405180910390fd5b806001600160a01b03166109a661151c565b6001600160a01b031614806109c757506109c7816109c261151c565b6113cd565b610a025760405162461bcd60e51b81526004018080602001828103825260388152602001806120e66038913960400191505060405180910390fd5b610a0c8383611520565b505050565b600d8181548110610a1e57fe5b60009182526020909120600390910201805460018201546002909201549092506001600160a01b039091169083565b610a55612017565b600d8281548110610a6257fe5b60009182526020918290206040805160608101825260039093029091018054835260020154908201526001600160a01b03851691810191909152600d8054919250829184908110610aaf57fe5b60009182526020808320845160039093020191825583810151600180840180546001600160a01b039384166001600160a01b031991821617909155604096870151600290950194909455878552600e835285852080549983169985168a179055888552600f835285852080549091019055979097168252828220805460001901905593815260109095529093208054909116909117905550565b6000610b55600261158e565b905090565b610b62612017565b82815233602082015260408101829052600b54600d805483919083908110610b8657fe5b60009182526020808320845160039093020191825583810151600180840180546001600160a01b039093166001600160a01b0319938416179055604095860151600290940193909355948352600e8152838320805490951633908117909555938252600f90935220805482019055600b80549091019055505050565b610c13610c0d61151c565b82611599565b610c4e5760405162461bcd60e51b81526004018080602001828103825260318152602001806122386031913960400191505060405180910390fd5b610a0c83838361163d565b6001600160a01b0382166000908152600160205260408120610c81908363ffffffff61179b16565b90505b92915050565b610a0c838383604051806020016040528060008152506110b6565b600080610cb960028463ffffffff6117a716565b509392505050565b6000610c8482604051806060016040528060298152602001612148602991396002919063ffffffff6117c316565b60098054604080516020601f60026000196101006001881615020190951694909404938401819004810282018101909252828152606093909290918301828280156108ca5780601f1061089f576101008083540402835291602001916108ca565b60006001600160a01b038216610d975760405162461bcd60e51b815260040180806020018281038252602a81526020018061211e602a913960400191505060405180910390fd5b6001600160a01b0382166000908152600160205260409020610c849061158e565b600a546001600160a01b03163314610dcf57600080fd5b600a546040516001600160a01b03909116907ff8df31144d9c2f0f6b59d69b8b98abd5459d07f2742c4df920b25aae33c6482090600090a2600a80546001600160a01b0319169055565b600e602052600090815260409020546001600160a01b031681565b600a546001600160a01b031681565b60078054604080516020601f60026000196101006001881615020190951694909404938401819004810282018101909252828152606093909290918301828280156108ca5780601f1061089f576101008083540402835291602001916108ca565b610eac61151c565b6001600160a01b0316826001600160a01b03161415610f12576040805162461bcd60e51b815260206004820152601960248201527f4552433732313a20617070726f766520746f2063616c6c657200000000000000604482015290519081900360640190fd5b8060056000610f1f61151c565b6001600160a01b03908116825260208083019390935260409182016000908120918716808252919093529120805460ff191692151592909217909155610f6361151c565b60408051841515815290516001600160a01b0392909216917f17307eab39ab6107e8899845ad3d59bd9653f200f220920489ca2b5937696c319181900360200190a35050565b60606001600160a01b038216610fbe57600080fd5b600f6000836001600160a01b03166001600160a01b031681526020019081526020016000205460405190808252806020026020018201604052801561100d578160200160208202803883390190505b5090506000805b600d548110156110af57611026612017565b600d828154811061103357fe5b60009182526020918290206040805160608101825260039093029091018054835260018101546001600160a01b0390811694840185905260029091015491830191909152909250861614156110a657806000015184848151811061109357fe5b6020026020010181815250506001830192505b50600101611014565b5050919050565b6110c76110c161151c565b83611599565b6111025760405162461bcd60e51b81526004018080602001828103825260318152602001806122386031913960400191505060405180910390fd5b61110e848484846117da565b50505050565b606061111f82611509565b61115a5760405162461bcd60e51b815260040180806020018281038252602f8152602001806121e8602f913960400191505060405180910390fd5b60008281526008602090815260409182902080548351601f60026000196101006001861615020190931692909204918201849004840281018401909452808452606093928301828280156111ef5780601f106111c4576101008083540402835291602001916111ef565b820191906000526020600020905b8154815290600101906020018083116111d257829003601f168201915b505060095493945050505060026000196101006001841615020190911604611218579050610839565b8051156112e95760098160405160200180838054600181600116156101000203166002900480156112805780601f1061125e576101008083540402835291820191611280565b820191906000526020600020905b81548152906001019060200180831161126c575b5050825160208401908083835b602083106112ac5780518252601f19909201916020918201910161128d565b6001836020036101000a03801982511681845116808217855250505050505090500192505050604051602081830303815290604052915050610839565b60096112f48461182c565b60405160200180838054600181600116156101000203166002900480156113525780601f10611330576101008083540402835291820191611352565b820191906000526020600020905b81548152906001019060200180831161133e575b5050825160208401908083835b6020831061137e5780518252601f19909201916020918201910161135f565b6001836020036101000a03801982511681845116808217855250505050505090500192505050604051602081830303815290604052915050919050565b600f6020526000908152604090205481565b6001600160a01b03918216600090815260056020908152604080832093909416825291909152205460ff1690565b600a546001600160a01b0316331461141257600080fd5b61141b816118f0565b50565b611426612017565b600d828154811061143357fe5b60009182526020918290206040805160608101825260039093029091018054835260018101546001600160a01b03169383018490526002015490820181905290925090611481813386610a4d565b600c546040805163a9059cbb60e01b81526001600160a01b038481166004830152602482018690529151919092169163a9059cbb9160448083019260209291908290030181600087803b1580156114d757600080fd5b505af11580156114eb573d6000803e3d6000fd5b505050506040513d602081101561150157600080fd5b505050505050565b6000610c8460028363ffffffff61195f16565b3390565b600081815260046020526040902080546001600160a01b0319166001600160a01b038416908117909155819061155582610cc1565b6001600160a01b03167f8c5be1e5ebec7d5bd14f71427d1e84f3dd0314c0f7b2291e5b200ac8c7c3b92560405160405180910390a45050565b6000610c848261196b565b60006115a482611509565b6115df5760405162461bcd60e51b815260040180806020018281038252602c8152602001806120ba602c913960400191505060405180910390fd5b60006115ea83610cc1565b9050806001600160a01b0316846001600160a01b031614806116255750836001600160a01b031661161a846108d4565b6001600160a01b0316145b80611635575061163581856113cd565b949350505050565b826001600160a01b031661165082610cc1565b6001600160a01b0316146116955760405162461bcd60e51b81526004018080602001828103825260298152602001806121bf6029913960400191505060405180910390fd5b6001600160a01b0382166116da5760405162461bcd60e51b81526004018080602001828103825260248152602001806120966024913960400191505060405180910390fd5b6116e5838383610a0c565b6116f0600082611520565b6001600160a01b0383166000908152600160205260409020611718908263ffffffff61196f16565b506001600160a01b0382166000908152600160205260409020611741908263ffffffff61197b16565b506117546002828463ffffffff61198716565b5080826001600160a01b0316846001600160a01b03167fddf252ad1be2c89b69c2b068fc378daa952ba7f163c4a11628f55a4df523b3ef60405160405180910390a4505050565b6000610c81838361199d565b60008080806117b68686611a01565b9097909650945050505050565b60006117d0848484611a7c565b90505b9392505050565b6117e584848461163d565b6117f184848484611b46565b61110e5760405162461bcd60e51b81526004018080602001828103825260328152602001806120646032913960400191505060405180910390fd5b60608161185157506040805180820190915260018152600360fc1b6020820152610839565b8160005b811561186957600101600a82049150611855565b6060816040519080825280601f01601f191660200182016040528015611896576020820181803883390190505b50859350905060001982015b83156118e757600a840660300160f81b828280600190039350815181106118c557fe5b60200101906001600160f81b031916908160001a905350600a840493506118a2565b50949350505050565b6001600160a01b03811661190357600080fd5b600a546040516001600160a01b038084169216907f8be0079c531659141344cd1fd0a4f28419497f9722a3daafe3b4186f6b6457e090600090a3600a80546001600160a01b0319166001600160a01b0392909216919091179055565b6000610c818383611cc6565b5490565b6000610c818383611cde565b6000610c818383611da4565b60006117d084846001600160a01b038516611dee565b815460009082106119df5760405162461bcd60e51b81526004018080602001828103825260228152602001806120426022913960400191505060405180910390fd5b8260000182815481106119ee57fe5b9060005260206000200154905092915050565b815460009081908310611a455760405162461bcd60e51b81526004018080602001828103825260228152602001806121716022913960400191505060405180910390fd5b6000846000018481548110611a5657fe5b906000526020600020906002020190508060000154816001015492509250509250929050565b60008281526001840160205260408120548281611b175760405162461bcd60e51b81526004018080602001828103825283818151815260200191508051906020019080838360005b83811015611adc578181015183820152602001611ac4565b50505050905090810190601f168015611b095780820380516001836020036101000a031916815260200191505b509250505060405180910390fd5b50846000016001820381548110611b2a57fe5b9060005260206000209060020201600101549150509392505050565b6000611b5a846001600160a01b0316611e85565b611b6657506001611635565b6060611c8c630a85bd0160e11b611b7b61151c565b88878760405160240180856001600160a01b03166001600160a01b03168152602001846001600160a01b03166001600160a01b0316815260200183815260200180602001828103825283818151815260200191508051906020019080838360005b83811015611bf4578181015183820152602001611bdc565b50505050905090810190601f168015611c215780820380516001836020036101000a031916815260200191505b5095505050505050604051602081830303815290604052906001600160e01b0319166020820180516001600160e01b038381831617835250505050604051806060016040528060328152602001612064603291396001600160a01b038816919063ffffffff611e8b16565b90506000818060200190516020811015611ca557600080fd5b50516001600160e01b031916630a85bd0160e11b1492505050949350505050565b60009081526001919091016020526040902054151590565b60008181526001830160205260408120548015611d9a5783546000198083019190810190600090879083908110611d1157fe5b9060005260206000200154905080876000018481548110611d2e57fe5b600091825260208083209091019290925582815260018981019092526040902090840190558654879080611d5e57fe5b60019003818190600052602060002001600090559055866001016000878152602001908152602001600020600090556001945050505050610c84565b6000915050610c84565b6000611db08383611cc6565b611de657508154600181810184556000848152602080822090930184905584548482528286019093526040902091909155610c84565b506000610c84565b600082815260018401602052604081205480611e535750506040805180820182528381526020808201848152865460018181018955600089815284812095516002909302909501918255915190820155865486845281880190925292909120556117d3565b82856000016001830381548110611e6657fe5b90600052602060002090600202016001018190555060009150506117d3565b3b151590565b60606117d0848460008585611e9f85611e85565b611ef0576040805162461bcd60e51b815260206004820152601d60248201527f416464726573733a2063616c6c20746f206e6f6e2d636f6e7472616374000000604482015290519081900360640190fd5b60006060866001600160a01b031685876040518082805190602001908083835b60208310611f2f5780518252601f199092019160209182019101611f10565b6001836020036101000a03801982511681845116808217855250505050505090500191505060006040518083038185875af1925050503d8060008114611f91576040519150601f19603f3d011682016040523d82523d6000602084013e611f96565b606091505b5091509150611fa6828286611fb1565b979650505050505050565b60608315611fc05750816117d3565b825115611fd05782518084602001fd5b60405162461bcd60e51b8152602060048201818152845160248401528451859391928392604401919085019080838360008315611adc578181015183820152602001611ac4565b60405180606001604052806000815260200160006001600160a01b0316815260200160008152509056fe456e756d657261626c655365743a20696e646578206f7574206f6620626f756e64734552433732313a207472616e7366657220746f206e6f6e20455243373231526563656976657220696d706c656d656e7465724552433732313a207472616e7366657220746f20746865207a65726f20616464726573734552433732313a206f70657261746f7220717565727920666f72206e6f6e6578697374656e7420746f6b656e4552433732313a20617070726f76652063616c6c6572206973206e6f74206f776e6572206e6f7220617070726f76656420666f7220616c6c4552433732313a2062616c616e636520717565727920666f7220746865207a65726f20616464726573734552433732313a206f776e657220717565727920666f72206e6f6e6578697374656e7420746f6b656e456e756d657261626c654d61703a20696e646578206f7574206f6620626f756e64734552433732313a20617070726f76656420717565727920666f72206e6f6e6578697374656e7420746f6b656e4552433732313a207472616e73666572206f6620746f6b656e2074686174206973206e6f74206f776e4552433732314d657461646174613a2055524920717565727920666f72206e6f6e6578697374656e7420746f6b656e4552433732313a20617070726f76616c20746f2063757272656e74206f776e65724552433732313a207472616e736665722063616c6c6572206973206e6f74206f776e6572206e6f7220617070726f766564a26469706673582212207d623b7decb6565993965f340421eba8346c97812d676fd2ee7c43de4f8c9a5164736f6c63430006020033",
  "source": "pragma solidity ^0.6.2;\n//pragma solidity ^0.5.16;\n\n//based on work of author susmit\n\n\nimport \"./ownable.sol\";\nimport \"@openzeppelin/contracts/token/ERC721/ERC721.sol\";\nimport \"@openzeppelin/contracts/math/SafeMath.sol\";\nimport \"./ERC720.sol\";\n\ncontract DigitalREC is ERC721,Ownable {\n    \n    using SafeMath for uint256;\n    \n    struct RECStruct{\n        uint stateID;     //unique state assigned ID\n        address owner;    //Owner of REC\n        uint price;       // price of REC in ether\n    }\n    \n    uint private count = 0;\n\n    ERC20 currencyToken;\n    \n    // Creates an empty array of REC structs - the index is the id\n    RECStruct[] public RECs;\n\n    // Mapping from id of REC to owner's address\n    mapping(uint256 => address) public RECToOwner;\n\n    // Mapping from owner's address to tokens owned\n    mapping(address => uint256) public ownerRECCount;\n    \n\n    // Mapping from token ID to approved address\n    mapping(uint256 => address) RECApprovals;\n\n    constructor() public ERC721(\"DigitalREC\", \"REC\") {}\n\n    // mint the unique token to represent a valid REC\n    function mintToken(uint stateID, uint price) public {\n        RECStruct memory rec;\n        rec.stateID = stateID;\n        rec.owner = msg.sender;\n        rec.price = price;\n\n        //require(isUnique(stateID));   --ensure this REC has not been sold before\n        //verifyREC(msg.sender, stateID);  --ensure this is a valid REC (verify using an API such as M-RETS)\n\n        uint256 recID = count;\n        RECs[recID] = rec;\n        RECToOwner[recID] = msg.sender;\n        ownerRECCount[msg.sender] +=1;\n\n        count+=1;\n\n    }\n\n    //return the stateIDs of RECs owned \n    function RECsOwned(address _owner) external view returns (uint256[] memory _ownedRECIds) {\n        require(_owner != address(0));\n        _ownedRECIds = new uint[](ownerRECCount[_owner]);\n        uint numFound = 0;\n        for (uint i=0; i<RECs.length; i++) {\n\n            RECStruct memory currREC = RECs[i];\n            \n            if(currREC.owner == _owner) {\n                _ownedRECIds[numFound] = currREC.stateID;\n                numFound+=1;\n            }\n        }\n        return _ownedRECIds;\n    }\n\n\n    //buy the REC of the given id - transfer ownership of REC and transfer funds\n    function buyREC(uint RECid) public payable {\n        RECStruct memory rec = RECs[RECid];\n        uint256 rec_price = rec.price;\n        address prev_owner = rec.owner;\n        //require(msg.value >= rec_price)\n        //require(balanceOf(msg.sender)>=rec_price)\n\n        transferOwnership(prev_owner, msg.sender, RECid);\n        currencyToken.transfer(prev_owner, rec_price);\n        \n    }\n    \n  \n  function transferOwnership(address _from, address _to, uint256 _RECId) public{\n      RECStruct memory rec = RECs[_RECId];\n      rec.owner = _to;\n      RECs[_RECId] = rec;\n      RECToOwner[_RECId] = _to;\n      ownerRECCount[_to] +=1;\n      ownerRECCount[_from] -=1;\n      RECApprovals[_RECId] = _to;\n\n\n  }\n  \n    \n\n    \n}\n",
  "sourcePath": "/Users/nmskrishna/newproj/contracts/DigitalREC.sol",
  "compiler": {
    "name": "solc",
    "version": "0.6.2+commit.bacdbe57.Emscripten.clang"
  },
  "schemaVersion": "3.3.2",
  "updatedAt": "2020-11-28T06:39:08.185Z",
  "networkType": "ethereum",
  "devdoc": {
    "methods": {
      "approve(address,uint256)": {
        "details": "See {IERC721-approve}."
      },
      "balanceOf(address)": {
        "details": "See {IERC721-balanceOf}."
      },
      "baseURI()": {
        "details": "Returns the base URI set via {_setBaseURI}. This will be automatically added as a prefix in {tokenURI} to each token's URI, or to the token ID if no specific URI is set for that token ID."
      },
      "getApproved(uint256)": {
        "details": "See {IERC721-getApproved}."
      },
      "isApprovedForAll(address,address)": {
        "details": "See {IERC721-isApprovedForAll}."
      },
      "name()": {
        "details": "See {IERC721Metadata-name}."
      },
      "ownerOf(uint256)": {
        "details": "See {IERC721-ownerOf}."
      },
      "renounceOwnership()": {
        "details": "Allows the current owner to relinquish control of the contract."
      },
      "safeTransferFrom(address,address,uint256)": {
        "details": "See {IERC721-safeTransferFrom}."
      },
      "safeTransferFrom(address,address,uint256,bytes)": {
        "details": "See {IERC721-safeTransferFrom}."
      },
      "setApprovalForAll(address,bool)": {
        "details": "See {IERC721-setApprovalForAll}."
      },
      "supportsInterface(bytes4)": {
        "details": "See {IERC165-supportsInterface}.     * Time complexity O(1), guaranteed to always use less than 30 000 gas."
      },
      "symbol()": {
        "details": "See {IERC721Metadata-symbol}."
      },
      "tokenByIndex(uint256)": {
        "details": "See {IERC721Enumerable-tokenByIndex}."
      },
      "tokenOfOwnerByIndex(address,uint256)": {
        "details": "See {IERC721Enumerable-tokenOfOwnerByIndex}."
      },
      "tokenURI(uint256)": {
        "details": "See {IERC721Metadata-tokenURI}."
      },
      "totalSupply()": {
        "details": "See {IERC721Enumerable-totalSupply}."
      },
      "transferFrom(address,address,uint256)": {
        "details": "See {IERC721-transferFrom}."
      },
      "transferOwnership(address)": {
        "details": "Allows the current owner to transfer control of the contract to a newOwner.",
        "params": {
          "_newOwner": "The address to transfer ownership to."
        }
      }
    }
  },
  "userdoc": {
    "methods": {
      "renounceOwnership()": {
        "notice": "Renouncing to ownership will leave the contract without an owner. It will not be possible to call the functions with the `onlyOwner` modifier anymore."
      }
    }
  }
}